{
  "contractName": "Counter",
  "abi": [
    {
      "inputs": [],
      "name": "current",
      "outputs": [
        {
          "internalType": "uint256",
          "name": "",
          "type": "uint256"
        }
      ],
      "stateMutability": "view",
      "type": "function",
      "constant": true
    },
    {
      "inputs": [],
      "name": "increment",
      "outputs": [],
      "stateMutability": "nonpayable",
      "type": "function"
    },
    {
      "inputs": [],
      "name": "decrement",
      "outputs": [],
      "stateMutability": "nonpayable",
      "type": "function"
    }
  ],
  "bytecode": "0x608060405234801561001057600080fd5b506101b8806100206000396000f3fe608060405234801561001057600080fd5b50600436106100415760003560e01c80632baeceb7146100465780639fa6a6e314610050578063d09de08a1461006e575b600080fd5b61004e610078565b005b610058610093565b60405161006591906100d0565b60405180910390f35b61007661009c565b005b600160008082825461008a919061011a565b92505081905550565b60008054905090565b60016000808282546100ae919061014e565b92505081905550565b6000819050919050565b6100ca816100b7565b82525050565b60006020820190506100e560008301846100c1565b92915050565b7f4e487b7100000000000000000000000000000000000000000000000000000000600052601160045260246000fd5b6000610125826100b7565b9150610130836100b7565b9250828203905081811115610148576101476100eb565b5b92915050565b6000610159826100b7565b9150610164836100b7565b925082820190508082111561017c5761017b6100eb565b5b9291505056fea2646970667358221220e04c5107cabee4a90dac65adeadc6e39f5f9d860607f2ef175a5943f0ada2d1964736f6c63430008110033",
  "immutableReferences": {},
  "source": "// truffle/contracts/Counter.sol\n// SPDX-License-Identifier: MIT\npragma solidity ^0.8.15;\n\ncontract Counter{\n  uint256 private _count; //클라이언트가 수정할 수 없게 private\n\n  // private라서 Counter변수를 반환해주는 getter를 만들어줘야한다\n  function current() public view returns(uint256){\n    return _count;\n  }\n\n  // 버튼을 누를때 1증가\n  function increment() public {\n    _count += 1;\n  }\n\n  // 버튼을 누를때 1감소\n  function decrement() public {\n    _count -= 1;\n  }\n}",
  "sourcePath": "/Users/hancoco/Desktop/gitHub/study_connectWeb3/truffle/contracts/Counter.sol",
  "compiler": {
    "name": "solc",
    "version": "0.8.17+commit.8df45f5f.Emscripten.clang"
  },
  "schemaVersion": "3.4.10",
  "updatedAt": "2022-10-26T09:57:12.847Z",
  "networkType": "ethereum",
  "devdoc": {
    "kind": "dev",
    "methods": {},
    "version": 1
  },
  "userdoc": {
    "kind": "user",
    "methods": {},
    "version": 1
  }
}